{
  "_format": "hh-sol-artifact-1",
  "contractName": "coffeekachakkar",
  "sourceName": "contracts/Coffee.sol",
  "abi": [
    {
      "inputs": [
        {
          "internalType": "address",
          "name": "_user",
          "type": "address"
        },
        {
          "internalType": "string",
          "name": "url",
          "type": "string"
        }
      ],
      "name": "add",
      "outputs": [],
      "stateMutability": "nonpayable",
      "type": "function"
    },
    {
      "inputs": [
        {
          "internalType": "address",
          "name": "user",
          "type": "address"
        }
      ],
      "name": "allow",
      "outputs": [],
      "stateMutability": "nonpayable",
      "type": "function"
    },
    {
      "inputs": [
        {
          "internalType": "string",
          "name": "coffeeName",
          "type": "string"
        },
        {
          "internalType": "string",
          "name": "coffeeMessage",
          "type": "string"
        }
      ],
      "name": "buyCoffee",
      "outputs": [],
      "stateMutability": "payable",
      "type": "function"
    },
    {
      "inputs": [
        {
          "internalType": "address",
          "name": "user",
          "type": "address"
        }
      ],
      "name": "disallow",
      "outputs": [],
      "stateMutability": "nonpayable",
      "type": "function"
    },
    {
      "inputs": [],
      "stateMutability": "nonpayable",
      "type": "constructor"
    },
    {
      "inputs": [
        {
          "internalType": "address",
          "name": "",
          "type": "address"
        },
        {
          "internalType": "uint256",
          "name": "",
          "type": "uint256"
        }
      ],
      "name": "accessList",
      "outputs": [
        {
          "internalType": "address",
          "name": "user",
          "type": "address"
        },
        {
          "internalType": "bool",
          "name": "access",
          "type": "bool"
        }
      ],
      "stateMutability": "view",
      "type": "function"
    },
    {
      "inputs": [
        {
          "internalType": "address",
          "name": "_user",
          "type": "address"
        }
      ],
      "name": "display",
      "outputs": [
        {
          "internalType": "string[]",
          "name": "",
          "type": "string[]"
        }
      ],
      "stateMutability": "view",
      "type": "function"
    },
    {
      "inputs": [],
      "name": "getMemos",
      "outputs": [
        {
          "components": [
            {
              "internalType": "string",
              "name": "name",
              "type": "string"
            },
            {
              "internalType": "string",
              "name": "message",
              "type": "string"
            },
            {
              "internalType": "uint256",
              "name": "timestamp",
              "type": "uint256"
            },
            {
              "internalType": "address",
              "name": "from",
              "type": "address"
            }
          ],
          "internalType": "struct coffeekachakkar.Memo[]",
          "name": "",
          "type": "tuple[]"
        }
      ],
      "stateMutability": "view",
      "type": "function"
    },
    {
      "inputs": [],
      "name": "shareAccess",
      "outputs": [
        {
          "components": [
            {
              "internalType": "address",
              "name": "user",
              "type": "address"
            },
            {
              "internalType": "bool",
              "name": "access",
              "type": "bool"
            }
          ],
          "internalType": "struct coffeekachakkar.Access[]",
          "name": "",
          "type": "tuple[]"
        }
      ],
      "stateMutability": "view",
      "type": "function"
    }
  ],
  "bytecode": "608060405234801561000f575f80fd5b503360015f6101000a81548173ffffffffffffffffffffffffffffffffffffffff021916908373ffffffffffffffffffffffffffffffffffffffff160217905550611e0f8061005d5f395ff3fe60806040526004361061007a575f3560e01c8063a9ed9cb81161004d578063a9ed9cb814610129578063bc8bef8114610151578063eb39113f1461017b578063ff9913e8146101b75761007a565b8063204206e11461007e57806336d6da551461009a57806370c2b419146100c2578063865c5172146100ff575b5f80fd5b61009860048036038101906100939190611289565b6101df565b005b3480156100a5575f80fd5b506100c060048036038101906100bb91906113b6565b610364565b005b3480156100cd575f80fd5b506100e860048036038101906100e39190611446565b6103df565b6040516100f69291906114ad565b60405180910390f35b34801561010a575f80fd5b50610113610440565b604051610120919061168e565b60405180910390f35b348015610134575f80fd5b5061014f600480360381019061014a91906116ae565b610619565b005b34801561015c575f80fd5b50610165610917565b60405161017291906117bd565b60405180910390f35b348015610186575f80fd5b506101a1600480360381019061019c91906116ae565b610a18565b6040516101ae9190611898565b60405180910390f35b3480156101c2575f80fd5b506101dd60048036038101906101d891906116ae565b610c23565b005b5f3411610221576040517f08c379a000000000000000000000000000000000000000000000000000000000815260040161021890611912565b60405180910390fd5b60015f9054906101000a900473ffffffffffffffffffffffffffffffffffffffff1673ffffffffffffffffffffffffffffffffffffffff166108fc3490811502906040515f60405180830381858888f19350505050158015610285573d5f803e3d5ffd5b505f60405180608001604052808481526020018381526020014281526020013373ffffffffffffffffffffffffffffffffffffffff16815250908060018154018082558091505060019003905f5260205f2090600402015f909190919091505f820151815f0190816102f79190611b2a565b50602082015181600101908161030d9190611b2a565b50604082015181600201556060820151816003015f6101000a81548173ffffffffffffffffffffffffffffffffffffffff021916908373ffffffffffffffffffffffffffffffffffffffff16021790555050505050565b60025f8473ffffffffffffffffffffffffffffffffffffffff1673ffffffffffffffffffffffffffffffffffffffff1681526020019081526020015f20828290918060018154018082558091505060019003905f5260205f20015f9091929091929091929091925091826103d9929190611c03565b50505050565b6004602052815f5260405f2081815481106103f8575f80fd5b905f5260205f20015f9150915050805f015f9054906101000a900473ffffffffffffffffffffffffffffffffffffffff1690805f0160149054906101000a900460ff16905082565b60605f805480602002602001604051908101604052809291908181526020015f905b82821015610610578382905f5260205f2090600402016040518060800160405290815f820180546104929061195d565b80601f01602080910402602001604051908101604052809291908181526020018280546104be9061195d565b80156105095780601f106104e057610100808354040283529160200191610509565b820191905f5260205f20905b8154815290600101906020018083116104ec57829003601f168201915b505050505081526020016001820180546105229061195d565b80601f016020809104026020016040519081016040528092919081815260200182805461054e9061195d565b80156105995780601f1061057057610100808354040283529160200191610599565b820191905f5260205f20905b81548152906001019060200180831161057c57829003601f168201915b5050505050815260200160028201548152602001600382015f9054906101000a900473ffffffffffffffffffffffffffffffffffffffff1673ffffffffffffffffffffffffffffffffffffffff1673ffffffffffffffffffffffffffffffffffffffff168152505081526020019060010190610462565b50505050905090565b5f60035f3373ffffffffffffffffffffffffffffffffffffffff1673ffffffffffffffffffffffffffffffffffffffff1681526020019081526020015f205f8373ffffffffffffffffffffffffffffffffffffffff1673ffffffffffffffffffffffffffffffffffffffff1681526020019081526020015f205f6101000a81548160ff0219169083151502179055505f5b60045f3373ffffffffffffffffffffffffffffffffffffffff1673ffffffffffffffffffffffffffffffffffffffff1681526020019081526020015f2080549050811015610822578173ffffffffffffffffffffffffffffffffffffffff1660045f3373ffffffffffffffffffffffffffffffffffffffff1673ffffffffffffffffffffffffffffffffffffffff1681526020019081526020015f20828154811061075857610757611cd0565b5b905f5260205f20015f015f9054906101000a900473ffffffffffffffffffffffffffffffffffffffff1673ffffffffffffffffffffffffffffffffffffffff160361080f575f60045f3373ffffffffffffffffffffffffffffffffffffffff1673ffffffffffffffffffffffffffffffffffffffff1681526020019081526020015f2082815481106107ed576107ec611cd0565b5b905f5260205f20015f0160146101000a81548160ff0219169083151502179055505b808061081a90611d2a565b9150506106aa565b5060045f3373ffffffffffffffffffffffffffffffffffffffff1673ffffffffffffffffffffffffffffffffffffffff1681526020019081526020015f2060405180604001604052808373ffffffffffffffffffffffffffffffffffffffff1681526020015f1515815250908060018154018082558091505060019003905f5260205f20015f909190919091505f820151815f015f6101000a81548173ffffffffffffffffffffffffffffffffffffffff021916908373ffffffffffffffffffffffffffffffffffffffff1602179055506020820151815f0160146101000a81548160ff021916908315150217905550505050565b606060045f3373ffffffffffffffffffffffffffffffffffffffff1673ffffffffffffffffffffffffffffffffffffffff1681526020019081526020015f20805480602002602001604051908101604052809291908181526020015f905b82821015610a0f578382905f5260205f20016040518060400160405290815f82015f9054906101000a900473ffffffffffffffffffffffffffffffffffffffff1673ffffffffffffffffffffffffffffffffffffffff1673ffffffffffffffffffffffffffffffffffffffff1681526020015f820160149054906101000a900460ff16151515158152505081526020019060010190610975565b50505050905090565b60603373ffffffffffffffffffffffffffffffffffffffff168273ffffffffffffffffffffffffffffffffffffffff161480610ad5575060035f8373ffffffffffffffffffffffffffffffffffffffff1673ffffffffffffffffffffffffffffffffffffffff1681526020019081526020015f205f3373ffffffffffffffffffffffffffffffffffffffff1673ffffffffffffffffffffffffffffffffffffffff1681526020019081526020015f205f9054906101000a900460ff165b610b14576040517f08c379a0000000000000000000000000000000000000000000000000000000008152600401610b0b90611dbb565b60405180910390fd5b60025f8373ffffffffffffffffffffffffffffffffffffffff1673ffffffffffffffffffffffffffffffffffffffff1681526020019081526020015f20805480602002602001604051908101604052809291908181526020015f905b82821015610c18578382905f5260205f20018054610b8d9061195d565b80601f0160208091040260200160405190810160405280929190818152602001828054610bb99061195d565b8015610c045780601f10610bdb57610100808354040283529160200191610c04565b820191905f5260205f20905b815481529060010190602001808311610be757829003601f168201915b505050505081526020019060010190610b70565b505050509050919050565b600160035f3373ffffffffffffffffffffffffffffffffffffffff1673ffffffffffffffffffffffffffffffffffffffff1681526020019081526020015f205f8373ffffffffffffffffffffffffffffffffffffffff1673ffffffffffffffffffffffffffffffffffffffff1681526020019081526020015f205f6101000a81548160ff0219169083151502179055506001151560055f3373ffffffffffffffffffffffffffffffffffffffff1673ffffffffffffffffffffffffffffffffffffffff1681526020019081526020015f205f8373ffffffffffffffffffffffffffffffffffffffff1673ffffffffffffffffffffffffffffffffffffffff1681526020019081526020015f205f9054906101000a900460ff16151503610ec4575f5b60045f3373ffffffffffffffffffffffffffffffffffffffff1673ffffffffffffffffffffffffffffffffffffffff1681526020019081526020015f2080549050811015610ebe578173ffffffffffffffffffffffffffffffffffffffff1660045f3373ffffffffffffffffffffffffffffffffffffffff1673ffffffffffffffffffffffffffffffffffffffff1681526020019081526020015f208281548110610df357610df2611cd0565b5b905f5260205f20015f015f9054906101000a900473ffffffffffffffffffffffffffffffffffffffff1673ffffffffffffffffffffffffffffffffffffffff1603610eab57600160045f3373ffffffffffffffffffffffffffffffffffffffff1673ffffffffffffffffffffffffffffffffffffffff1681526020019081526020015f208281548110610e8957610e88611cd0565b5b905f5260205f20015f0160146101000a81548160ff0219169083151502179055505b8080610eb690611d2a565b915050610d45565b50611047565b60045f3373ffffffffffffffffffffffffffffffffffffffff1673ffffffffffffffffffffffffffffffffffffffff1681526020019081526020015f2060405180604001604052808373ffffffffffffffffffffffffffffffffffffffff16815260200160011515815250908060018154018082558091505060019003905f5260205f20015f909190919091505f820151815f015f6101000a81548173ffffffffffffffffffffffffffffffffffffffff021916908373ffffffffffffffffffffffffffffffffffffffff1602179055506020820151815f0160146101000a81548160ff0219169083151502179055505050600160055f3373ffffffffffffffffffffffffffffffffffffffff1673ffffffffffffffffffffffffffffffffffffffff1681526020019081526020015f205f8373ffffffffffffffffffffffffffffffffffffffff1673ffffffffffffffffffffffffffffffffffffffff1681526020019081526020015f205f6101000a81548160ff0219169083151502179055505b60045f3373ffffffffffffffffffffffffffffffffffffffff1673ffffffffffffffffffffffffffffffffffffffff1681526020019081526020015f2060405180604001604052808373ffffffffffffffffffffffffffffffffffffffff16815260200160011515815250908060018154018082558091505060019003905f5260205f20015f909190919091505f820151815f015f6101000a81548173ffffffffffffffffffffffffffffffffffffffff021916908373ffffffffffffffffffffffffffffffffffffffff1602179055506020820151815f0160146101000a81548160ff021916908315150217905550505050565b5f604051905090565b5f80fd5b5f80fd5b5f80fd5b5f80fd5b5f601f19601f8301169050919050565b7f4e487b71000000000000000000000000000000000000000000000000000000005f52604160045260245ffd5b61119b82611155565b810181811067ffffffffffffffff821117156111ba576111b9611165565b5b80604052505050565b5f6111cc61113c565b90506111d88282611192565b919050565b5f67ffffffffffffffff8211156111f7576111f6611165565b5b61120082611155565b9050602081019050919050565b828183375f83830152505050565b5f61122d611228846111dd565b6111c3565b90508281526020810184848401111561124957611248611151565b5b61125484828561120d565b509392505050565b5f82601f8301126112705761126f61114d565b5b813561128084826020860161121b565b91505092915050565b5f806040838503121561129f5761129e611145565b5b5f83013567ffffffffffffffff8111156112bc576112bb611149565b5b6112c88582860161125c565b925050602083013567ffffffffffffffff8111156112e9576112e8611149565b5b6112f58582860161125c565b9150509250929050565b5f73ffffffffffffffffffffffffffffffffffffffff82169050919050565b5f611328826112ff565b9050919050565b6113388161131e565b8114611342575f80fd5b50565b5f813590506113538161132f565b92915050565b5f80fd5b5f80fd5b5f8083601f8401126113765761137561114d565b5b8235905067ffffffffffffffff81111561139357611392611359565b5b6020830191508360018202830111156113af576113ae61135d565b5b9250929050565b5f805f604084860312156113cd576113cc611145565b5b5f6113da86828701611345565b935050602084013567ffffffffffffffff8111156113fb576113fa611149565b5b61140786828701611361565b92509250509250925092565b5f819050919050565b61142581611413565b811461142f575f80fd5b50565b5f813590506114408161141c565b92915050565b5f806040838503121561145c5761145b611145565b5b5f61146985828601611345565b925050602061147a85828601611432565b9150509250929050565b61148d8161131e565b82525050565b5f8115159050919050565b6114a781611493565b82525050565b5f6040820190506114c05f830185611484565b6114cd602083018461149e565b9392505050565b5f81519050919050565b5f82825260208201905092915050565b5f819050602082019050919050565b5f81519050919050565b5f82825260208201905092915050565b5f5b83811015611534578082015181840152602081019050611519565b5f8484015250505050565b5f611549826114fd565b6115538185611507565b9350611563818560208601611517565b61156c81611155565b840191505092915050565b61158081611413565b82525050565b61158f8161131e565b82525050565b5f608083015f8301518482035f8601526115af828261153f565b915050602083015184820360208601526115c9828261153f565b91505060408301516115de6040860182611577565b5060608301516115f16060860182611586565b508091505092915050565b5f6116078383611595565b905092915050565b5f602082019050919050565b5f611625826114d4565b61162f81856114de565b935083602082028501611641856114ee565b805f5b8581101561167c578484038952815161165d85826115fc565b94506116688361160f565b925060208a01995050600181019050611644565b50829750879550505050505092915050565b5f6020820190508181035f8301526116a6818461161b565b905092915050565b5f602082840312156116c3576116c2611145565b5b5f6116d084828501611345565b91505092915050565b5f81519050919050565b5f82825260208201905092915050565b5f819050602082019050919050565b61170b81611493565b82525050565b604082015f8201516117255f850182611586565b5060208201516117386020850182611702565b50505050565b5f6117498383611711565b60408301905092915050565b5f602082019050919050565b5f61176b826116d9565b61177581856116e3565b9350611780836116f3565b805f5b838110156117b0578151611797888261173e565b97506117a283611755565b925050600181019050611783565b5085935050505092915050565b5f6020820190508181035f8301526117d58184611761565b905092915050565b5f81519050919050565b5f82825260208201905092915050565b5f819050602082019050919050565b5f611811838361153f565b905092915050565b5f602082019050919050565b5f61182f826117dd565b61183981856117e7565b93508360208202850161184b856117f7565b805f5b8581101561188657848403895281516118678582611806565b945061187283611819565b925060208a0199505060018101905061184e565b50829750879550505050505092915050565b5f6020820190508181035f8301526118b08184611825565b905092915050565b5f82825260208201905092915050565b7f506c656173652070617920746865206465736972656420616d6f756e740000005f82015250565b5f6118fc601d836118b8565b9150611907826118c8565b602082019050919050565b5f6020820190508181035f830152611929816118f0565b9050919050565b7f4e487b71000000000000000000000000000000000000000000000000000000005f52602260045260245ffd5b5f600282049050600182168061197457607f821691505b60208210810361198757611986611930565b5b50919050565b5f819050815f5260205f209050919050565b5f6020601f8301049050919050565b5f82821b905092915050565b5f600883026119e97fffffffffffffffffffffffffffffffffffffffffffffffffffffffffffffffff826119ae565b6119f386836119ae565b95508019841693508086168417925050509392505050565b5f819050919050565b5f611a2e611a29611a2484611413565b611a0b565b611413565b9050919050565b5f819050919050565b611a4783611a14565b611a5b611a5382611a35565b8484546119ba565b825550505050565b5f90565b611a6f611a63565b611a7a818484611a3e565b505050565b5b81811015611a9d57611a925f82611a67565b600181019050611a80565b5050565b601f821115611ae257611ab38161198d565b611abc8461199f565b81016020851015611acb578190505b611adf611ad78561199f565b830182611a7f565b50505b505050565b5f82821c905092915050565b5f611b025f1984600802611ae7565b1980831691505092915050565b5f611b1a8383611af3565b9150826002028217905092915050565b611b33826114fd565b67ffffffffffffffff811115611b4c57611b4b611165565b5b611b56825461195d565b611b61828285611aa1565b5f60209050601f831160018114611b92575f8415611b80578287015190505b611b8a8582611b0f565b865550611bf1565b601f198416611ba08661198d565b5f5b82811015611bc757848901518255600182019150602085019450602081019050611ba2565b86831015611be45784890151611be0601f891682611af3565b8355505b6001600288020188555050505b505050505050565b5f82905092915050565b611c0d8383611bf9565b67ffffffffffffffff811115611c2657611c25611165565b5b611c30825461195d565b611c3b828285611aa1565b5f601f831160018114611c68575f8415611c56578287013590505b611c608582611b0f565b865550611cc7565b601f198416611c768661198d565b5f5b82811015611c9d57848901358255600182019150602085019450602081019050611c78565b86831015611cba5784890135611cb6601f891682611af3565b8355505b6001600288020188555050505b50505050505050565b7f4e487b71000000000000000000000000000000000000000000000000000000005f52603260045260245ffd5b7f4e487b71000000000000000000000000000000000000000000000000000000005f52601160045260245ffd5b5f611d3482611413565b91507fffffffffffffffffffffffffffffffffffffffffffffffffffffffffffffffff8203611d6657611d65611cfd565b5b600182019050919050565b7f596f7520646f6e742068617665206163636573730000000000000000000000005f82015250565b5f611da56014836118b8565b9150611db082611d71565b602082019050919050565b5f6020820190508181035f830152611dd281611d99565b905091905056fea2646970667358221220dddaab6b212bd2200e7932728a9f644cf5fd8a16d22af516f35fd8732a4b771264736f6c63430008150033",
  "deployedBytecode": "0x6080604052600436106100295760003560e01c8063204206e11461002e578063865c51721461004a575b600080fd5b61004860048036038101906100439190610543565b610075565b005b34801561005657600080fd5b5061005f610206565b60405161006c91906107c0565b60405180910390f35b600034116100b8576040517f08c379a00000000000000000000000000000000000000000000000000000000081526004016100af9061083f565b60405180910390fd5b600160009054906101000a900473ffffffffffffffffffffffffffffffffffffffff1673ffffffffffffffffffffffffffffffffffffffff166108fc349081150290604051600060405180830381858888f19350505050158015610120573d6000803e3d6000fd5b50600060405180608001604052808481526020018381526020014281526020013373ffffffffffffffffffffffffffffffffffffffff16815250908060018154018082558091505060019003906000526020600020906004020160009091909190915060008201518160000190816101989190610a6b565b5060208201518160010190816101ae9190610a6b565b506040820151816002015560608201518160030160006101000a81548173ffffffffffffffffffffffffffffffffffffffff021916908373ffffffffffffffffffffffffffffffffffffffff16021790555050505050565b60606000805480602002602001604051908101604052809291908181526020016000905b828210156103e0578382906000526020600020906004020160405180608001604052908160008201805461025d9061088e565b80601f01602080910402602001604051908101604052809291908181526020018280546102899061088e565b80156102d65780601f106102ab576101008083540402835291602001916102d6565b820191906000526020600020905b8154815290600101906020018083116102b957829003601f168201915b505050505081526020016001820180546102ef9061088e565b80601f016020809104026020016040519081016040528092919081815260200182805461031b9061088e565b80156103685780601f1061033d57610100808354040283529160200191610368565b820191906000526020600020905b81548152906001019060200180831161034b57829003601f168201915b50505050508152602001600282015481526020016003820160009054906101000a900473ffffffffffffffffffffffffffffffffffffffff1673ffffffffffffffffffffffffffffffffffffffff1673ffffffffffffffffffffffffffffffffffffffff16815250508152602001906001019061022a565b50505050905090565b6000604051905090565b600080fd5b600080fd5b600080fd5b600080fd5b6000601f19601f8301169050919050565b7f4e487b7100000000000000000000000000000000000000000000000000000000600052604160045260246000fd5b61045082610407565b810181811067ffffffffffffffff8211171561046f5761046e610418565b5b80604052505050565b60006104826103e9565b905061048e8282610447565b919050565b600067ffffffffffffffff8211156104ae576104ad610418565b5b6104b782610407565b9050602081019050919050565b82818337600083830152505050565b60006104e66104e184610493565b610478565b90508281526020810184848401111561050257610501610402565b5b61050d8482856104c4565b509392505050565b600082601f83011261052a576105296103fd565b5b813561053a8482602086016104d3565b91505092915050565b6000806040838503121561055a576105596103f3565b5b600083013567ffffffffffffffff811115610578576105776103f8565b5b61058485828601610515565b925050602083013567ffffffffffffffff8111156105a5576105a46103f8565b5b6105b185828601610515565b9150509250929050565b600081519050919050565b600082825260208201905092915050565b6000819050602082019050919050565b600081519050919050565b600082825260208201905092915050565b60005b83811015610621578082015181840152602081019050610606565b60008484015250505050565b6000610638826105e7565b61064281856105f2565b9350610652818560208601610603565b61065b81610407565b840191505092915050565b6000819050919050565b61067981610666565b82525050565b600073ffffffffffffffffffffffffffffffffffffffff82169050919050565b60006106aa8261067f565b9050919050565b6106ba8161069f565b82525050565b600060808301600083015184820360008601526106dd828261062d565b915050602083015184820360208601526106f7828261062d565b915050604083015161070c6040860182610670565b50606083015161071f60608601826106b1565b508091505092915050565b600061073683836106c0565b905092915050565b6000602082019050919050565b6000610756826105bb565b61076081856105c6565b935083602082028501610772856105d7565b8060005b858110156107ae578484038952815161078f858261072a565b945061079a8361073e565b925060208a01995050600181019050610776565b50829750879550505050505092915050565b600060208201905081810360008301526107da818461074b565b905092915050565b600082825260208201905092915050565b7f506c656173652070617920746865206465736972656420616d6f756e74000000600082015250565b6000610829601d836107e2565b9150610834826107f3565b602082019050919050565b600060208201905081810360008301526108588161081c565b9050919050565b7f4e487b7100000000000000000000000000000000000000000000000000000000600052602260045260246000fd5b600060028204905060018216806108a657607f821691505b6020821081036108b9576108b861085f565b5b50919050565b60008190508160005260206000209050919050565b60006020601f8301049050919050565b600082821b905092915050565b6000600883026109217fffffffffffffffffffffffffffffffffffffffffffffffffffffffffffffffff826108e4565b61092b86836108e4565b95508019841693508086168417925050509392505050565b6000819050919050565b600061096861096361095e84610666565b610943565b610666565b9050919050565b6000819050919050565b6109828361094d565b61099661098e8261096f565b8484546108f1565b825550505050565b600090565b6109ab61099e565b6109b6818484610979565b505050565b5b818110156109da576109cf6000826109a3565b6001810190506109bc565b5050565b601f821115610a1f576109f0816108bf565b6109f9846108d4565b81016020851015610a08578190505b610a1c610a14856108d4565b8301826109bb565b50505b505050565b600082821c905092915050565b6000610a4260001984600802610a24565b1980831691505092915050565b6000610a5b8383610a31565b9150826002028217905092915050565b610a74826105e7565b67ffffffffffffffff811115610a8d57610a8c610418565b5b610a97825461088e565b610aa28282856109de565b600060209050601f831160018114610ad55760008415610ac3578287015190505b610acd8582610a4f565b865550610b35565b601f198416610ae3866108bf565b60005b82811015610b0b57848901518255600182019150602085019450602081019050610ae6565b86831015610b285784890151610b24601f891682610a31565b8355505b6001600288020188555050505b50505050505056fea2646970667358221220c159094ba7a789bcd582bfcfb34b3f049c8d5597726448015a8f98ca5304349464736f6c63430008130033",
  "linkReferences": {},
  "deployedLinkReferences": {}
}